{
  "_format": "hh-sol-artifact-1",
  "contractName": "GelatoNft",
  "sourceName": "contracts/GelatoNft.sol",
  "abi": [
    {
      "inputs": [
        {
          "internalType": "address",
          "name": "_gelatoMsgSender",
          "type": "address"
        }
      ],
      "stateMutability": "nonpayable",
      "type": "constructor"
    },
    {
      "anonymous": false,
      "inputs": [
        {
          "indexed": true,
          "internalType": "address",
          "name": "owner",
          "type": "address"
        },
        {
          "indexed": true,
          "internalType": "address",
          "name": "approved",
          "type": "address"
        },
        {
          "indexed": true,
          "internalType": "uint256",
          "name": "tokenId",
          "type": "uint256"
        }
      ],
      "name": "Approval",
      "type": "event"
    },
    {
      "anonymous": false,
      "inputs": [
        {
          "indexed": true,
          "internalType": "address",
          "name": "owner",
          "type": "address"
        },
        {
          "indexed": true,
          "internalType": "address",
          "name": "operator",
          "type": "address"
        },
        {
          "indexed": false,
          "internalType": "bool",
          "name": "approved",
          "type": "bool"
        }
      ],
      "name": "ApprovalForAll",
      "type": "event"
    },
    {
      "anonymous": false,
      "inputs": [
        {
          "indexed": false,
          "internalType": "uint256",
          "name": "_fromTokenId",
          "type": "uint256"
        },
        {
          "indexed": false,
          "internalType": "uint256",
          "name": "_toTokenId",
          "type": "uint256"
        }
      ],
      "name": "BatchMetadataUpdate",
      "type": "event"
    },
    {
      "anonymous": false,
      "inputs": [
        {
          "indexed": false,
          "internalType": "uint256",
          "name": "_tokenId",
          "type": "uint256"
        }
      ],
      "name": "MetadataUpdate",
      "type": "event"
    },
    {
      "anonymous": false,
      "inputs": [
        {
          "indexed": false,
          "internalType": "uint256",
          "name": "_tokenId",
          "type": "uint256"
        }
      ],
      "name": "MetadataUpdates",
      "type": "event"
    },
    {
      "anonymous": false,
      "inputs": [
        {
          "indexed": false,
          "internalType": "uint256",
          "name": "_tokenId",
          "type": "uint256"
        }
      ],
      "name": "MintEvent",
      "type": "event"
    },
    {
      "anonymous": false,
      "inputs": [
        {
          "indexed": true,
          "internalType": "address",
          "name": "previousOwner",
          "type": "address"
        },
        {
          "indexed": true,
          "internalType": "address",
          "name": "newOwner",
          "type": "address"
        }
      ],
      "name": "OwnershipTransferred",
      "type": "event"
    },
    {
      "anonymous": false,
      "inputs": [
        {
          "indexed": false,
          "internalType": "address",
          "name": "account",
          "type": "address"
        }
      ],
      "name": "Paused",
      "type": "event"
    },
    {
      "anonymous": false,
      "inputs": [
        {
          "indexed": true,
          "internalType": "address",
          "name": "from",
          "type": "address"
        },
        {
          "indexed": true,
          "internalType": "address",
          "name": "to",
          "type": "address"
        },
        {
          "indexed": true,
          "internalType": "uint256",
          "name": "tokenId",
          "type": "uint256"
        }
      ],
      "name": "Transfer",
      "type": "event"
    },
    {
      "anonymous": false,
      "inputs": [
        {
          "indexed": false,
          "internalType": "address",
          "name": "account",
          "type": "address"
        }
      ],
      "name": "Unpaused",
      "type": "event"
    },
    {
      "inputs": [
        {
          "internalType": "address",
          "name": "to",
          "type": "address"
        },
        {
          "internalType": "uint256",
          "name": "tokenId",
          "type": "uint256"
        }
      ],
      "name": "approve",
      "outputs": [],
      "stateMutability": "nonpayable",
      "type": "function"
    },
    {
      "inputs": [
        {
          "internalType": "address",
          "name": "owner",
          "type": "address"
        }
      ],
      "name": "balanceOf",
      "outputs": [
        {
          "internalType": "uint256",
          "name": "",
          "type": "uint256"
        }
      ],
      "stateMutability": "view",
      "type": "function"
    },
    {
      "inputs": [],
      "name": "gelatoMsgSender",
      "outputs": [
        {
          "internalType": "address",
          "name": "",
          "type": "address"
        }
      ],
      "stateMutability": "view",
      "type": "function"
    },
    {
      "inputs": [
        {
          "internalType": "uint256",
          "name": "tokenId",
          "type": "uint256"
        }
      ],
      "name": "getApproved",
      "outputs": [
        {
          "internalType": "address",
          "name": "",
          "type": "address"
        }
      ],
      "stateMutability": "view",
      "type": "function"
    },
    {
      "inputs": [
        {
          "internalType": "address",
          "name": "",
          "type": "address"
        }
      ],
      "name": "hasMinted",
      "outputs": [
        {
          "internalType": "bool",
          "name": "",
          "type": "bool"
        }
      ],
      "stateMutability": "view",
      "type": "function"
    },
    {
      "inputs": [
        {
          "internalType": "address",
          "name": "owner",
          "type": "address"
        },
        {
          "internalType": "address",
          "name": "operator",
          "type": "address"
        }
      ],
      "name": "isApprovedForAll",
      "outputs": [
        {
          "internalType": "bool",
          "name": "",
          "type": "bool"
        }
      ],
      "stateMutability": "view",
      "type": "function"
    },
    {
      "inputs": [
        {
          "internalType": "bool",
          "name": "_isNight",
          "type": "bool"
        }
      ],
      "name": "mint",
      "outputs": [],
      "stateMutability": "nonpayable",
      "type": "function"
    },
    {
      "inputs": [],
      "name": "name",
      "outputs": [
        {
          "internalType": "string",
          "name": "",
          "type": "string"
        }
      ],
      "stateMutability": "view",
      "type": "function"
    },
    {
      "inputs": [
        {
          "internalType": "uint256",
          "name": "",
          "type": "uint256"
        }
      ],
      "name": "nightTimeByToken",
      "outputs": [
        {
          "internalType": "bool",
          "name": "",
          "type": "bool"
        }
      ],
      "stateMutability": "view",
      "type": "function"
    },
    {
      "inputs": [],
      "name": "notRevealedUri",
      "outputs": [
        {
          "internalType": "string",
          "name": "",
          "type": "string"
        }
      ],
      "stateMutability": "view",
      "type": "function"
    },
    {
      "inputs": [],
      "name": "owner",
      "outputs": [
        {
          "internalType": "address",
          "name": "",
          "type": "address"
        }
      ],
      "stateMutability": "view",
      "type": "function"
    },
    {
      "inputs": [
        {
          "internalType": "uint256",
          "name": "tokenId",
          "type": "uint256"
        }
      ],
      "name": "ownerOf",
      "outputs": [
        {
          "internalType": "address",
          "name": "",
          "type": "address"
        }
      ],
      "stateMutability": "view",
      "type": "function"
    },
    {
      "inputs": [],
      "name": "pause",
      "outputs": [],
      "stateMutability": "nonpayable",
      "type": "function"
    },
    {
      "inputs": [],
      "name": "paused",
      "outputs": [
        {
          "internalType": "bool",
          "name": "",
          "type": "bool"
        }
      ],
      "stateMutability": "view",
      "type": "function"
    },
    {
      "inputs": [],
      "name": "renounceOwnership",
      "outputs": [],
      "stateMutability": "nonpayable",
      "type": "function"
    },
    {
      "inputs": [
        {
          "internalType": "uint256",
          "name": "tokenId",
          "type": "uint256"
        },
        {
          "internalType": "string",
          "name": "tokenURI",
          "type": "string"
        }
      ],
      "name": "revealNft",
      "outputs": [],
      "stateMutability": "nonpayable",
      "type": "function"
    },
    {
      "inputs": [
        {
          "internalType": "address",
          "name": "from",
          "type": "address"
        },
        {
          "internalType": "address",
          "name": "to",
          "type": "address"
        },
        {
          "internalType": "uint256",
          "name": "tokenId",
          "type": "uint256"
        }
      ],
      "name": "safeTransferFrom",
      "outputs": [],
      "stateMutability": "nonpayable",
      "type": "function"
    },
    {
      "inputs": [
        {
          "internalType": "address",
          "name": "from",
          "type": "address"
        },
        {
          "internalType": "address",
          "name": "to",
          "type": "address"
        },
        {
          "internalType": "uint256",
          "name": "tokenId",
          "type": "uint256"
        },
        {
          "internalType": "bytes",
          "name": "data",
          "type": "bytes"
        }
      ],
      "name": "safeTransferFrom",
      "outputs": [],
      "stateMutability": "nonpayable",
      "type": "function"
    },
    {
      "inputs": [
        {
          "internalType": "address",
          "name": "operator",
          "type": "address"
        },
        {
          "internalType": "bool",
          "name": "approved",
          "type": "bool"
        }
      ],
      "name": "setApprovalForAll",
      "outputs": [],
      "stateMutability": "nonpayable",
      "type": "function"
    },
    {
      "inputs": [
        {
          "internalType": "bytes4",
          "name": "interfaceId",
          "type": "bytes4"
        }
      ],
      "name": "supportsInterface",
      "outputs": [
        {
          "internalType": "bool",
          "name": "",
          "type": "bool"
        }
      ],
      "stateMutability": "view",
      "type": "function"
    },
    {
      "inputs": [],
      "name": "symbol",
      "outputs": [
        {
          "internalType": "string",
          "name": "",
          "type": "string"
        }
      ],
      "stateMutability": "view",
      "type": "function"
    },
    {
      "inputs": [
        {
          "internalType": "address",
          "name": "",
          "type": "address"
        }
      ],
      "name": "tokenIdByUser",
      "outputs": [
        {
          "internalType": "uint256",
          "name": "",
          "type": "uint256"
        }
      ],
      "stateMutability": "view",
      "type": "function"
    },
    {
      "inputs": [],
      "name": "tokenIds",
      "outputs": [
        {
          "internalType": "uint256",
          "name": "_value",
          "type": "uint256"
        }
      ],
      "stateMutability": "view",
      "type": "function"
    },
    {
      "inputs": [
        {
          "internalType": "uint256",
          "name": "tokenId",
          "type": "uint256"
        }
      ],
      "name": "tokenURI",
      "outputs": [
        {
          "internalType": "string",
          "name": "",
          "type": "string"
        }
      ],
      "stateMutability": "view",
      "type": "function"
    },
    {
      "inputs": [
        {
          "internalType": "address",
          "name": "from",
          "type": "address"
        },
        {
          "internalType": "address",
          "name": "to",
          "type": "address"
        },
        {
          "internalType": "uint256",
          "name": "tokenId",
          "type": "uint256"
        }
      ],
      "name": "transferFrom",
      "outputs": [],
      "stateMutability": "nonpayable",
      "type": "function"
    },
    {
      "inputs": [
        {
          "internalType": "address",
          "name": "newOwner",
          "type": "address"
        }
      ],
      "name": "transferOwnership",
      "outputs": [],
      "stateMutability": "nonpayable",
      "type": "function"
    },
    {
      "inputs": [],
      "name": "unpause",
      "outputs": [],
      "stateMutability": "nonpayable",
      "type": "function"
    }
  ],
  "bytecode": "0x60a06040523480156200001157600080fd5b5060405162001fc738038062001fc7833981016040819052620000349162000139565b6040518060400160405280601281526020017111d95b185d1bc81413d31651d3d38813919560721b8152506040518060400160405280600f81526020016e11d1530b5413d31651d3d38b539195608a1b815250816000908162000098919062000210565b506001620000a7828262000210565b505050620000c4620000be620000e360201b60201c565b620000e7565b6007805460ff60a01b191690556001600160a01b0316608052620002dc565b3390565b600780546001600160a01b038381166001600160a01b0319831681179093556040519116919082907f8be0079c531659141344cd1fd0a4f28419497f9722a3daafe3b4186f6b6457e090600090a35050565b6000602082840312156200014c57600080fd5b81516001600160a01b03811681146200016457600080fd5b9392505050565b634e487b7160e01b600052604160045260246000fd5b600181811c908216806200019657607f821691505b602082108103620001b757634e487b7160e01b600052602260045260246000fd5b50919050565b601f8211156200020b57600081815260208120601f850160051c81016020861015620001e65750805b601f850160051c820191505b818110156200020757828155600101620001f2565b5050505b505050565b81516001600160401b038111156200022c576200022c6200016b565b62000244816200023d845462000181565b84620001bd565b602080601f8311600181146200027c5760008415620002635750858301515b600019600386901b1c1916600185901b17855562000207565b600085815260208120601f198616915b82811015620002ad578886015182559484019460019091019084016200028c565b5085821015620002cc5787850151600019600388901b60f8161c191681555b5050505050600190811b01905550565b608051611cc8620002ff6000396000818161036e015261080f0152611cc86000f3fe608060405234801561001057600080fd5b50600436106101a95760003560e01c8063677fc360116100f9578063a22cb46511610097578063c87b56dd11610071578063c87b56dd14610390578063defa8201146103a3578063e985e9c5146103c6578063f2fde38b1461040257600080fd5b8063a22cb46514610343578063b88d4fde14610356578063c54430821461036957600080fd5b8063715018a6116100d3578063715018a61461031a5780638456cb59146103225780638da5cb5b1461032a57806395d89b411461033b57600080fd5b8063677fc360146102ea57806370a08231146102fd578063714cff561461031057600080fd5b806319eb73ea116101665780633f4ba83a116101405780633f4ba83a146102aa57806342842e0e146102b25780635c975abb146102c55780636352211e146102d757600080fd5b806319eb73ea1461024657806323b872dd1461027457806338e21cce1461028757600080fd5b806301ffc9a7146101ae57806306fdde03146101d6578063081812fc146101eb578063081c8c4414610216578063095ea7b31461021e57806318c41a8014610233575b600080fd5b6101c16101bc366004611663565b610415565b60405190151581526020015b60405180910390f35b6101de610440565b6040516101cd91906116d0565b6101fe6101f93660046116e3565b6104d2565b6040516001600160a01b0390911681526020016101cd565b6101de6104f9565b61023161022c366004611718565b610515565b005b610231610241366004611752565b61062f565b61026661025436600461176d565b600a6020526000908152604090205481565b6040519081526020016101cd565b610231610282366004611788565b610746565b6101c161029536600461176d565b60096020526000908152604090205460ff1681565b610231610777565b6102316102c0366004611788565b610789565b600754600160a01b900460ff166101c1565b6101fe6102e53660046116e3565b6107a4565b6102316102f8366004611850565b610804565b61026661030b36600461176d565b6108b6565b6008546102669081565b61023161093c565b61023161094e565b6007546001600160a01b03166101fe565b6101de61095e565b6102316103513660046118ab565b61096d565b6102316103643660046118de565b61097c565b6101fe7f000000000000000000000000000000000000000000000000000000000000000081565b6101de61039e3660046116e3565b6109b4565b6101c16103b13660046116e3565b600b6020526000908152604090205460ff1681565b6101c16103d436600461195a565b6001600160a01b03918216600090815260056020908152604080832093909416825291909152205460ff1690565b61023161041036600461176d565b610ac4565b60006001600160e01b03198216632483248360e11b148061043a575061043a82610b3d565b92915050565b60606000805461044f90611984565b80601f016020809104026020016040519081016040528092919081815260200182805461047b90611984565b80156104c85780601f1061049d576101008083540402835291602001916104c8565b820191906000526020600020905b8154815290600101906020018083116104ab57829003601f168201915b5050505050905090565b60006104dd82610b8d565b506000908152600460205260409020546001600160a01b031690565b604051806080016040528060598152602001611c3a6059913981565b6000610520826107a4565b9050806001600160a01b0316836001600160a01b0316036105925760405162461bcd60e51b815260206004820152602160248201527f4552433732313a20617070726f76616c20746f2063757272656e74206f776e656044820152603960f91b60648201526084015b60405180910390fd5b336001600160a01b03821614806105ae57506105ae81336103d4565b6106205760405162461bcd60e51b815260206004820152603d60248201527f4552433732313a20617070726f76652063616c6c6572206973206e6f7420746f60448201527f6b656e206f776e6572206f7220617070726f76656420666f7220616c6c0000006064820152608401610589565b61062a8383610bec565b505050565b610637610c5a565b3360009081526009602052604090205460ff16156106895760405162461bcd60e51b815260206004820152600f60248201526e416c7265616479206d696e7465642160881b6044820152606401610589565b610697600880546001019055565b60006106a260085490565b90506106ae3382610ca7565b6106d081604051806080016040528060598152602001611c3a60599139610e32565b3360009081526009602090815260408083208054600160ff1991821617909155600a8352818420859055848452600b83529281902080549093168515151790925590518281527f94242c431036b9ba6723a138d4b275a5b38e13a95ef66227a45df427c0f843f391015b60405180910390a15050565b6107503382610ef6565b61076c5760405162461bcd60e51b8152600401610589906119be565b61062a838383610f74565b61077f6110d8565b610787611132565b565b61062a8383836040518060200160405280600081525061097c565b6000818152600260205260408120546001600160a01b03168061043a5760405162461bcd60e51b8152602060048201526018602482015277115490cdcc8c4e881a5b9d985b1a59081d1bdad95b88125160421b6044820152606401610589565b336001600160a01b037f0000000000000000000000000000000000000000000000000000000000000000161461087c5760405162461bcd60e51b815260206004820181905260248201527f4f6e6c79206465646963617465642067656c61746f206d73672e73656e6465726044820152606401610589565b6108868282610e32565b6040518281527f3203e4e1a0bec3720a2662c0e8bac8c2a2bb5d2638c76189dca52036359d86539060200161073a565b60006001600160a01b0382166109205760405162461bcd60e51b815260206004820152602960248201527f4552433732313a2061646472657373207a65726f206973206e6f7420612076616044820152683634b21037bbb732b960b91b6064820152608401610589565b506001600160a01b031660009081526003602052604090205490565b6109446110d8565b6107876000611187565b6109566110d8565b6107876111d9565b60606001805461044f90611984565b61097833838361121c565b5050565b6109863383610ef6565b6109a25760405162461bcd60e51b8152600401610589906119be565b6109ae848484846112ea565b50505050565b60606109bf82610b8d565b600082815260066020526040812080546109d890611984565b80601f0160208091040260200160405190810160405280929190818152602001828054610a0490611984565b8015610a515780601f10610a2657610100808354040283529160200191610a51565b820191906000526020600020905b815481529060010190602001808311610a3457829003601f168201915b505050505090506000610a6f60408051602081019091526000815290565b90508051600003610a81575092915050565b815115610ab3578082604051602001610a9b929190611a0b565b60405160208183030381529060405292505050919050565b610abc8461131d565b949350505050565b610acc6110d8565b6001600160a01b038116610b315760405162461bcd60e51b815260206004820152602660248201527f4f776e61626c653a206e6577206f776e657220697320746865207a65726f206160448201526564647265737360d01b6064820152608401610589565b610b3a81611187565b50565b60006001600160e01b031982166380ac58cd60e01b1480610b6e57506001600160e01b03198216635b5e139f60e01b145b8061043a57506301ffc9a760e01b6001600160e01b031983161461043a565b6000818152600260205260409020546001600160a01b0316610b3a5760405162461bcd60e51b8152602060048201526018602482015277115490cdcc8c4e881a5b9d985b1a59081d1bdad95b88125160421b6044820152606401610589565b600081815260046020526040902080546001600160a01b0319166001600160a01b0384169081179091558190610c21826107a4565b6001600160a01b03167f8c5be1e5ebec7d5bd14f71427d1e84f3dd0314c0f7b2291e5b200ac8c7c3b92560405160405180910390a45050565b600754600160a01b900460ff16156107875760405162461bcd60e51b815260206004820152601060248201526f14185d5cd8589b194e881c185d5cd95960821b6044820152606401610589565b6001600160a01b038216610cfd5760405162461bcd60e51b815260206004820181905260248201527f4552433732313a206d696e7420746f20746865207a65726f20616464726573736044820152606401610589565b6000818152600260205260409020546001600160a01b031615610d625760405162461bcd60e51b815260206004820152601c60248201527f4552433732313a20746f6b656e20616c7265616479206d696e746564000000006044820152606401610589565b6000818152600260205260409020546001600160a01b031615610dc75760405162461bcd60e51b815260206004820152601c60248201527f4552433732313a20746f6b656e20616c7265616479206d696e746564000000006044820152606401610589565b6001600160a01b038216600081815260036020908152604080832080546001019055848352600290915280822080546001600160a01b0319168417905551839291907fddf252ad1be2c89b69c2b068fc378daa952ba7f163c4a11628f55a4df523b3ef908290a45050565b6000828152600260205260409020546001600160a01b0316610ead5760405162461bcd60e51b815260206004820152602e60248201527f45524337323155524953746f726167653a2055524920736574206f66206e6f6e60448201526d32bc34b9ba32b73a103a37b5b2b760911b6064820152608401610589565b6000828152600660205260409020610ec58282611a88565b506040518281527ff8e1a15aba9398e019f0b49df1a4fde98ee17ae345cb5f6b5e2c27f5033e8ce79060200161073a565b600080610f02836107a4565b9050806001600160a01b0316846001600160a01b03161480610f4957506001600160a01b0380821660009081526005602090815260408083209388168352929052205460ff165b80610abc5750836001600160a01b0316610f62846104d2565b6001600160a01b031614949350505050565b826001600160a01b0316610f87826107a4565b6001600160a01b031614610fad5760405162461bcd60e51b815260040161058990611b48565b6001600160a01b03821661100f5760405162461bcd60e51b8152602060048201526024808201527f4552433732313a207472616e7366657220746f20746865207a65726f206164646044820152637265737360e01b6064820152608401610589565b826001600160a01b0316611022826107a4565b6001600160a01b0316146110485760405162461bcd60e51b815260040161058990611b48565b600081815260046020908152604080832080546001600160a01b03199081169091556001600160a01b0387811680865260038552838620805460001901905590871680865283862080546001019055868652600290945282852080549092168417909155905184937fddf252ad1be2c89b69c2b068fc378daa952ba7f163c4a11628f55a4df523b3ef91a4505050565b6007546001600160a01b031633146107875760405162461bcd60e51b815260206004820181905260248201527f4f776e61626c653a2063616c6c6572206973206e6f7420746865206f776e65726044820152606401610589565b61113a611391565b6007805460ff60a01b191690557f5db9ee0a495bf2e6ff9c91a7834c1ba4fdd244a5e8aa4e537bd38aeae4b073aa335b6040516001600160a01b03909116815260200160405180910390a1565b600780546001600160a01b038381166001600160a01b0319831681179093556040519116919082907f8be0079c531659141344cd1fd0a4f28419497f9722a3daafe3b4186f6b6457e090600090a35050565b6111e1610c5a565b6007805460ff60a01b1916600160a01b1790557f62e78cea01bee320cd4e420270b5ea74000d11b0c9f74754ebdbfc544b05a25861116a3390565b816001600160a01b0316836001600160a01b03160361127d5760405162461bcd60e51b815260206004820152601960248201527f4552433732313a20617070726f766520746f2063616c6c6572000000000000006044820152606401610589565b6001600160a01b03838116600081815260056020908152604080832094871680845294825291829020805460ff191686151590811790915591519182527f17307eab39ab6107e8899845ad3d59bd9653f200f220920489ca2b5937696c31910160405180910390a3505050565b6112f5848484610f74565b611301848484846113e1565b6109ae5760405162461bcd60e51b815260040161058990611b8d565b606061132882610b8d565b600061133f60408051602081019091526000815290565b9050600081511161135f576040518060200160405280600081525061138a565b80611369846114e2565b60405160200161137a929190611a0b565b6040516020818303038152906040525b9392505050565b600754600160a01b900460ff166107875760405162461bcd60e51b815260206004820152601460248201527314185d5cd8589b194e881b9bdd081c185d5cd95960621b6044820152606401610589565b60006001600160a01b0384163b156114d757604051630a85bd0160e11b81526001600160a01b0385169063150b7a0290611425903390899088908890600401611bdf565b6020604051808303816000875af1925050508015611460575060408051601f3d908101601f1916820190925261145d91810190611c1c565b60015b6114bd573d80801561148e576040519150601f19603f3d011682016040523d82523d6000602084013e611493565b606091505b5080516000036114b55760405162461bcd60e51b815260040161058990611b8d565b805181602001fd5b6001600160e01b031916630a85bd0160e11b149050610abc565b506001949350505050565b606060006114ef83611575565b600101905060008167ffffffffffffffff81111561150f5761150f6117c4565b6040519080825280601f01601f191660200182016040528015611539576020820181803683370190505b5090508181016020015b600019016f181899199a1a9b1b9c1cb0b131b232b360811b600a86061a8153600a850494508461154357509392505050565b60008072184f03e93ff9f4daa797ed6e38ed64bf6a1f0160401b83106115b45772184f03e93ff9f4daa797ed6e38ed64bf6a1f0160401b830492506040015b6d04ee2d6d415b85acef810000000083106115e0576d04ee2d6d415b85acef8100000000830492506020015b662386f26fc1000083106115fe57662386f26fc10000830492506010015b6305f5e1008310611616576305f5e100830492506008015b612710831061162a57612710830492506004015b6064831061163c576064830492506002015b600a831061043a5760010192915050565b6001600160e01b031981168114610b3a57600080fd5b60006020828403121561167557600080fd5b813561138a8161164d565b60005b8381101561169b578181015183820152602001611683565b50506000910152565b600081518084526116bc816020860160208601611680565b601f01601f19169290920160200192915050565b60208152600061138a60208301846116a4565b6000602082840312156116f557600080fd5b5035919050565b80356001600160a01b038116811461171357600080fd5b919050565b6000806040838503121561172b57600080fd5b611734836116fc565b946020939093013593505050565b8035801515811461171357600080fd5b60006020828403121561176457600080fd5b61138a82611742565b60006020828403121561177f57600080fd5b61138a826116fc565b60008060006060848603121561179d57600080fd5b6117a6846116fc565b92506117b4602085016116fc565b9150604084013590509250925092565b634e487b7160e01b600052604160045260246000fd5b600067ffffffffffffffff808411156117f5576117f56117c4565b604051601f8501601f19908116603f0116810190828211818310171561181d5761181d6117c4565b8160405280935085815286868601111561183657600080fd5b858560208301376000602087830101525050509392505050565b6000806040838503121561186357600080fd5b82359150602083013567ffffffffffffffff81111561188157600080fd5b8301601f8101851361189257600080fd5b6118a1858235602084016117da565b9150509250929050565b600080604083850312156118be57600080fd5b6118c7836116fc565b91506118d560208401611742565b90509250929050565b600080600080608085870312156118f457600080fd5b6118fd856116fc565b935061190b602086016116fc565b925060408501359150606085013567ffffffffffffffff81111561192e57600080fd5b8501601f8101871361193f57600080fd5b61194e878235602084016117da565b91505092959194509250565b6000806040838503121561196d57600080fd5b611976836116fc565b91506118d5602084016116fc565b600181811c9082168061199857607f821691505b6020821081036119b857634e487b7160e01b600052602260045260246000fd5b50919050565b6020808252602d908201527f4552433732313a2063616c6c6572206973206e6f7420746f6b656e206f776e6560408201526c1c881bdc88185c1c1c9bdd9959609a1b606082015260800190565b60008351611a1d818460208801611680565b835190830190611a31818360208801611680565b01949350505050565b601f82111561062a57600081815260208120601f850160051c81016020861015611a615750805b601f850160051c820191505b81811015611a8057828155600101611a6d565b505050505050565b815167ffffffffffffffff811115611aa257611aa26117c4565b611ab681611ab08454611984565b84611a3a565b602080601f831160018114611aeb5760008415611ad35750858301515b600019600386901b1c1916600185901b178555611a80565b600085815260208120601f198616915b82811015611b1a57888601518255948401946001909101908401611afb565b5085821015611b385787850151600019600388901b60f8161c191681555b5050505050600190811b01905550565b60208082526025908201527f4552433732313a207472616e736665722066726f6d20696e636f72726563742060408201526437bbb732b960d91b606082015260800190565b60208082526032908201527f4552433732313a207472616e7366657220746f206e6f6e20455243373231526560408201527131b2b4bb32b91034b6b83632b6b2b73a32b960711b606082015260800190565b6001600160a01b0385811682528416602082015260408101839052608060608201819052600090611c12908301846116a4565b9695505050505050565b600060208284031215611c2e57600080fd5b815161138a8161164d56fe68747470733a2f2f6261666b726569643272696263686637766e78746d726d7066376a6b6267746f686c626f66356a3473746969707063706d7173333773366f377a652e697066732e6e667473746f726167652e6c696e6b2fa2646970667358221220f28006c5e8dd16ed4f39bd8095698c996dba8cb86f0ea74c42d0873d152af99c64736f6c63430008110033",
  "linkReferences": {},
  "deployedLinkReferences": {}
}